{
  "contractName": "Gye",
  "abi": [
    {
      "constant": true,
      "inputs": [],
      "name": "gyeName",
      "outputs": [
        {
          "name": "",
          "type": "string"
        }
      ],
      "payable": false,
      "stateMutability": "view",
      "type": "function"
    },
    {
      "constant": true,
      "inputs": [
        {
          "name": "",
          "type": "uint256"
        }
      ],
      "name": "members",
      "outputs": [
        {
          "name": "exists",
          "type": "bool"
        },
        {
          "name": "member",
          "type": "address"
        },
        {
          "name": "name",
          "type": "string"
        },
        {
          "name": "deposit",
          "type": "uint256"
        },
        {
          "name": "deposited",
          "type": "bool"
        },
        {
          "name": "withdrawn",
          "type": "bool"
        }
      ],
      "payable": false,
      "stateMutability": "view",
      "type": "function"
    },
    {
      "constant": true,
      "inputs": [
        {
          "name": "",
          "type": "address"
        }
      ],
      "name": "memberDirectory",
      "outputs": [
        {
          "name": "",
          "type": "uint256"
        }
      ],
      "payable": false,
      "stateMutability": "view",
      "type": "function"
    },
    {
      "constant": true,
      "inputs": [],
      "name": "owner",
      "outputs": [
        {
          "name": "",
          "type": "address"
        }
      ],
      "payable": false,
      "stateMutability": "view",
      "type": "function"
    },
    {
      "constant": true,
      "inputs": [],
      "name": "gyeDescription",
      "outputs": [
        {
          "name": "",
          "type": "string"
        }
      ],
      "payable": false,
      "stateMutability": "view",
      "type": "function"
    },
    {
      "constant": true,
      "inputs": [],
      "name": "interest",
      "outputs": [
        {
          "name": "",
          "type": "uint256"
        }
      ],
      "payable": false,
      "stateMutability": "view",
      "type": "function"
    },
    {
      "constant": false,
      "inputs": [
        {
          "name": "newOwner",
          "type": "address"
        }
      ],
      "name": "transferOwnership",
      "outputs": [],
      "payable": false,
      "stateMutability": "nonpayable",
      "type": "function"
    },
    {
      "inputs": [
        {
          "name": "_gyeName",
          "type": "string"
        },
        {
          "name": "_gyeDescription",
          "type": "string"
        },
        {
          "name": "_interest",
          "type": "uint256"
        }
      ],
      "payable": false,
      "stateMutability": "nonpayable",
      "type": "constructor"
    },
    {
      "payable": true,
      "stateMutability": "payable",
      "type": "fallback"
    },
    {
      "anonymous": false,
      "inputs": [
        {
          "indexed": true,
          "name": "from",
          "type": "address"
        },
        {
          "indexed": false,
          "name": "amount",
          "type": "uint256"
        }
      ],
      "name": "EtherReceived",
      "type": "event"
    },
    {
      "constant": false,
      "inputs": [
        {
          "name": "memberAddress",
          "type": "address"
        },
        {
          "name": "memberName",
          "type": "string"
        }
      ],
      "name": "addMember",
      "outputs": [],
      "payable": false,
      "stateMutability": "nonpayable",
      "type": "function"
    },
    {
      "constant": false,
      "inputs": [
        {
          "name": "recepient",
          "type": "address"
        },
        {
          "name": "amount",
          "type": "uint256"
        }
      ],
      "name": "pay",
      "outputs": [],
      "payable": false,
      "stateMutability": "nonpayable",
      "type": "function"
    },
    {
      "constant": false,
      "inputs": [],
      "name": "receiveEther",
      "outputs": [],
      "payable": true,
      "stateMutability": "payable",
      "type": "function"
    }
  ],
  "bytecode": "0x60806040523480156200001157600080fd5b50604051620013ef380380620013ef833981018060405281019080805182019291906020018051820192919060200180519060200190929190505050336000806101000a81548173ffffffffffffffffffffffffffffffffffffffff021916908373ffffffffffffffffffffffffffffffffffffffff1602179055508260039080519060200190620000a59291906200041f565b508160049080519060200190620000be9291906200041f565b50600160c060405190810160405280600015158152602001600073ffffffffffffffffffffffffffffffffffffffff1681526020016040805190810160405280600881526020017f53454e54494e454c000000000000000000000000000000000000000000000000815250815260200160008152602001600015158152602001600015158152509080600181540180825580915050906001820390600052602060002090600402016000909192909190915060008201518160000160006101000a81548160ff02191690831515021790555060208201518160000160016101000a81548173ffffffffffffffffffffffffffffffffffffffff021916908373ffffffffffffffffffffffffffffffffffffffff1602179055506040820151816001019080519060200190620001f5929190620004a6565b506060820151816002015560808201518160030160006101000a81548160ff02191690831515021790555060a08201518160030160016101000a81548160ff021916908315150217905550505050600180549050600260003373ffffffffffffffffffffffffffffffffffffffff1673ffffffffffffffffffffffffffffffffffffffff16815260200190815260200160002081905550600160c0604051908101604052806001151581526020013373ffffffffffffffffffffffffffffffffffffffff1681526020016040805190810160405280600581526020017f4f776e6572000000000000000000000000000000000000000000000000000000815250815260200160008152602001600015158152602001600015158152509080600181540180825580915050906001820390600052602060002090600402016000909192909190915060008201518160000160006101000a81548160ff02191690831515021790555060208201518160000160016101000a81548173ffffffffffffffffffffffffffffffffffffffff021916908373ffffffffffffffffffffffffffffffffffffffff1602179055506040820151816001019080519060200190620003c1929190620004a6565b506060820151816002015560808201518160030160006101000a81548160ff02191690831515021790555060a08201518160030160016101000a81548160ff0219169083151502179055505050508060058190555050505062000555565b828054600181600116156101000203166002900490600052602060002090601f016020900481019282601f106200046257805160ff191683800117855562000493565b8280016001018555821562000493579182015b828111156200049257825182559160200191906001019062000475565b5b509050620004a291906200052d565b5090565b828054600181600116156101000203166002900490600052602060002090601f016020900481019282601f10620004e957805160ff19168380011785556200051a565b828001600101855582156200051a579182015b8281111562000519578251825591602001919060010190620004fc565b5b5090506200052991906200052d565b5090565b6200055291905b808211156200054e57600081600090555060010162000534565b5090565b90565b610e8a80620005656000396000f3006080604052600436106100a4576000357c0100000000000000000000000000000000000000000000000000000000900463ffffffff1680633437bfc9146100ae5780635daf08ca1461013e57806364b109d11461023f5780638da5cb5b14610296578063a3912ec8146102ed578063a8535795146102f7578063c127c24714610387578063c392f76614610410578063c40768761461043b578063f2fde38b14610488575b6100ac6104cb565b005b3480156100ba57600080fd5b506100c3610785565b6040518080602001828103825283818151815260200191508051906020019080838360005b838110156101035780820151818401526020810190506100e8565b50505050905090810190601f1680156101305780820380516001836020036101000a031916815260200191505b509250505060405180910390f35b34801561014a57600080fd5b5061016960048036038101908080359060200190929190505050610823565b60405180871515151581526020018673ffffffffffffffffffffffffffffffffffffffff1673ffffffffffffffffffffffffffffffffffffffff168152602001806020018581526020018415151515815260200183151515158152602001828103825286818151815260200191508051906020019080838360005b838110156101ff5780820151818401526020810190506101e4565b50505050905090810190601f16801561022c5780820380516001836020036101000a031916815260200191505b5097505050505050505060405180910390f35b34801561024b57600080fd5b50610280600480360381019080803573ffffffffffffffffffffffffffffffffffffffff16906020019092919050505061094d565b6040518082815260200191505060405180910390f35b3480156102a257600080fd5b506102ab610965565b604051808273ffffffffffffffffffffffffffffffffffffffff1673ffffffffffffffffffffffffffffffffffffffff16815260200191505060405180910390f35b6102f56104cb565b005b34801561030357600080fd5b5061030c61098a565b6040518080602001828103825283818151815260200191508051906020019080838360005b8381101561034c578082015181840152602081019050610331565b50505050905090810190601f1680156103795780820380516001836020036101000a031916815260200191505b509250505060405180910390f35b34801561039357600080fd5b5061040e600480360381019080803573ffffffffffffffffffffffffffffffffffffffff169060200190929190803590602001908201803590602001908080601f0160208091040260200160405190810160405280939291908181526020018383808284378201915050505050509192919290505050610a28565b005b34801561041c57600080fd5b50610425610c1c565b6040518082815260200191505060405180910390f35b34801561044757600080fd5b50610486600480360381019080803573ffffffffffffffffffffffffffffffffffffffff16906020019092919080359060200190929190505050610c22565b005b34801561049457600080fd5b506104c9600480360381019080803573ffffffffffffffffffffffffffffffffffffffff169060200190929190505050610cc8565b005b6000806104d6610d66565b6001600260003373ffffffffffffffffffffffffffffffffffffffff1673ffffffffffffffffffffffffffffffffffffffff1681526020019081526020016000205481548110151561052457fe5b906000526020600020906004020160000160009054906101000a900460ff16151561054e57600080fd5b3392503491506001600260008573ffffffffffffffffffffffffffffffffffffffff1673ffffffffffffffffffffffffffffffffffffffff168152602001908152602001600020548154811015156105a257fe5b906000526020600020906004020160c060405190810160405290816000820160009054906101000a900460ff161515151581526020016000820160019054906101000a900473ffffffffffffffffffffffffffffffffffffffff1673ffffffffffffffffffffffffffffffffffffffff1673ffffffffffffffffffffffffffffffffffffffff168152602001600182018054600181600116156101000203166002900480601f0160208091040260200160405190810160405280929190818152602001828054600181600116156101000203166002900480156106c65780601f1061069b576101008083540402835291602001916106c6565b820191906000526020600020905b8154815290600101906020018083116106a957829003601f168201915b50505050508152602001600282015481526020016003820160009054906101000a900460ff161515151581526020016003820160019054906101000a900460ff16151515158152505090506001816080019015159081151581525050818160600181815101915081815250508273ffffffffffffffffffffffffffffffffffffffff167f1e57e3bb474320be3d2c77138f75b7c3941292d647f5f9634e33a8e94e0e069b836040518082815260200191505060405180910390a2505050565b60038054600181600116156101000203166002900480601f01602080910402602001604051908101604052809291908181526020018280546001816001161561010002031660029004801561081b5780601f106107f05761010080835404028352916020019161081b565b820191906000526020600020905b8154815290600101906020018083116107fe57829003601f168201915b505050505081565b60018181548110151561083257fe5b90600052602060002090600402016000915090508060000160009054906101000a900460ff16908060000160019054906101000a900473ffffffffffffffffffffffffffffffffffffffff1690806001018054600181600116156101000203166002900480601f0160208091040260200160405190810160405280929190818152602001828054600181600116156101000203166002900480156109175780601f106108ec57610100808354040283529160200191610917565b820191906000526020600020905b8154815290600101906020018083116108fa57829003601f168201915b5050505050908060020154908060030160009054906101000a900460ff16908060030160019054906101000a900460ff16905086565b60026020528060005260406000206000915090505481565b6000809054906101000a900473ffffffffffffffffffffffffffffffffffffffff1681565b60048054600181600116156101000203166002900480601f016020809104026020016040519081016040528092919081815260200182805460018160011615610100020316600290048015610a205780601f106109f557610100808354040283529160200191610a20565b820191906000526020600020905b815481529060010190602001808311610a0357829003601f168201915b505050505081565b6000809054906101000a900473ffffffffffffffffffffffffffffffffffffffff1673ffffffffffffffffffffffffffffffffffffffff163373ffffffffffffffffffffffffffffffffffffffff16141515610a8357600080fd5b600180549050600260008473ffffffffffffffffffffffffffffffffffffffff1673ffffffffffffffffffffffffffffffffffffffff16815260200190815260200160002081905550600160c0604051908101604052806001151581526020018473ffffffffffffffffffffffffffffffffffffffff16815260200183815260200160008152602001600015158152602001600015158152509080600181540180825580915050906001820390600052602060002090600402016000909192909190915060008201518160000160006101000a81548160ff02191690831515021790555060208201518160000160016101000a81548173ffffffffffffffffffffffffffffffffffffffff021916908373ffffffffffffffffffffffffffffffffffffffff1602179055506040820151816001019080519060200190610bca929190610db9565b506060820151816002015560808201518160030160006101000a81548160ff02191690831515021790555060a08201518160030160016101000a81548160ff0219169083151502179055505050505050565b60055481565b6000809054906101000a900473ffffffffffffffffffffffffffffffffffffffff1673ffffffffffffffffffffffffffffffffffffffff163373ffffffffffffffffffffffffffffffffffffffff16141515610c7d57600080fd5b8173ffffffffffffffffffffffffffffffffffffffff166108fc829081150290604051600060405180830381858888f19350505050158015610cc3573d6000803e3d6000fd5b505050565b6000809054906101000a900473ffffffffffffffffffffffffffffffffffffffff1673ffffffffffffffffffffffffffffffffffffffff163373ffffffffffffffffffffffffffffffffffffffff16141515610d2357600080fd5b806000806101000a81548173ffffffffffffffffffffffffffffffffffffffff021916908373ffffffffffffffffffffffffffffffffffffffff16021790555050565b60c060405190810160405280600015158152602001600073ffffffffffffffffffffffffffffffffffffffff16815260200160608152602001600081526020016000151581526020016000151581525090565b828054600181600116156101000203166002900490600052602060002090601f016020900481019282601f10610dfa57805160ff1916838001178555610e28565b82800160010185558215610e28579182015b82811115610e27578251825591602001919060010190610e0c565b5b509050610e359190610e39565b5090565b610e5b91905b80821115610e57576000816000905550600101610e3f565b5090565b905600a165627a7a7230582090f0d095e938f10656a1b1b99fdc67590bab1ffa10ea518283b2ff9637a29dac0029",
  "source": "pragma solidity ^0.4.18;\r\n\r\n// Ethereum Gye(契) Contract\r\n// Jeong Yeop (Terence) Kim\r\n\r\ncontract owned {\r\n    address public owner;\r\n\r\n    constructor() public {\r\n        owner = msg.sender;\r\n    }\r\n\r\n    modifier onlyOwner {\r\n        require(msg.sender == owner);\r\n        _;\r\n    }\r\n\r\n    function transferOwnership(address newOwner) public onlyOwner {\r\n        owner = newOwner;\r\n    }\r\n}\r\n\r\n\r\n// Simple Gye\r\ncontract Gye is owned {\r\n  Member[] public members;\r\n  mapping (address => uint) public memberDirectory;\r\n  string public gyeName;\r\n  string public gyeDescription;\r\n  uint public interest;\r\n\r\n  struct Member {\r\n    bool exists;\r\n    address member;\r\n    string name;\r\n    uint deposit;\r\n    bool deposited;\r\n    bool withdrawn;\r\n  }\r\n\r\n  constructor(string _gyeName, string _gyeDescription, uint _interest) public {\r\n    gyeName = _gyeName;\r\n    gyeDescription = _gyeDescription;\r\n    members.push(Member({exists: false, member: 0, name: \"SENTINEL\", deposit: 0, deposited: false, withdrawn: false})); // sentinel\r\n    memberDirectory[msg.sender] = members.length;\r\n    members.push(Member( { exists: true,\r\n                                            member: msg.sender,\r\n                                            name: \"Owner\",\r\n                                            deposit: 0,\r\n                                            deposited: false,\r\n                                            withdrawn: false }));\r\n    interest = _interest;\r\n  }\r\n\r\n  function addMember(address memberAddress, string memberName) onlyOwner public {\r\n\r\n    memberDirectory[memberAddress] = members.length;\r\n    members.push(Member({ exists: true,\r\n                                member: memberAddress,\r\n                                name: memberName,\r\n                                deposit: 0,\r\n                                deposited: false,\r\n                                withdrawn: false }));\r\n  }\r\n\r\n  modifier onlyMember {\r\n      require(members[memberDirectory[msg.sender]].exists);\r\n      _;\r\n  }\r\n\r\n  function pay(address recepient, uint amount) onlyOwner public {\r\n    recepient.transfer(amount);\r\n  }\r\n\r\n  // https://github.com/Giveth/vaultcontract/blob/master/contracts/Vault.sol\r\n  event EtherReceived(address indexed from, uint amount);\r\n  //////\r\n  // Receive Ether\r\n  //////\r\n\r\n  /// @notice Called anytime ether is sent to the contract && creates an event\r\n  /// to more easily track the incoming transactions\r\n  function receiveEther() onlyMember public payable {\r\n    address sender = msg.sender;\r\n    uint value = msg.value;\r\n\r\n    Member memory member = members[memberDirectory[sender]];\r\n    member.deposited = true;\r\n    member.deposit += value;\r\n\r\n    emit EtherReceived(sender, value);\r\n  }\r\n\r\n  /// @notice The fall back function is called whenever ether is sent to this\r\n  ///  contract\r\n  function () public payable {\r\n    receiveEther();\r\n  }\r\n\r\n\r\n}\r\n",
  "sourcePath": "c:\\Sandbox\\blockchain\\gye\\contracts\\Gye.sol",
  "compiler": {
    "name": "solc",
    "version": "0.4.23+commit.124ca40d.Emscripten.clang"
  },
  "schemaVersion": "2.0.0",
  "updatedAt": "2018-05-06T10:54:20.529Z"
}