{
  "contractName": "owned",
  "abi": [
    {
      "constant": true,
      "inputs": [],
      "name": "owner",
      "outputs": [
        {
          "name": "",
          "type": "address"
        }
      ],
      "payable": false,
      "stateMutability": "view",
      "type": "function"
    },
    {
      "inputs": [],
      "payable": false,
      "stateMutability": "nonpayable",
      "type": "constructor"
    },
    {
      "constant": false,
      "inputs": [
        {
          "name": "newOwner",
          "type": "address"
        }
      ],
      "name": "transferOwnership",
      "outputs": [],
      "payable": false,
      "stateMutability": "nonpayable",
      "type": "function"
    }
  ],
  "bytecode": "0x608060405234801561001057600080fd5b50336000806101000a81548173ffffffffffffffffffffffffffffffffffffffff021916908373ffffffffffffffffffffffffffffffffffffffff1602179055506101da806100606000396000f30060806040526004361061004c576000357c0100000000000000000000000000000000000000000000000000000000900463ffffffff1680638da5cb5b14610051578063f2fde38b146100a8575b600080fd5b34801561005d57600080fd5b506100666100eb565b604051808273ffffffffffffffffffffffffffffffffffffffff1673ffffffffffffffffffffffffffffffffffffffff16815260200191505060405180910390f35b3480156100b457600080fd5b506100e9600480360381019080803573ffffffffffffffffffffffffffffffffffffffff169060200190929190505050610110565b005b6000809054906101000a900473ffffffffffffffffffffffffffffffffffffffff1681565b6000809054906101000a900473ffffffffffffffffffffffffffffffffffffffff1673ffffffffffffffffffffffffffffffffffffffff163373ffffffffffffffffffffffffffffffffffffffff1614151561016b57600080fd5b806000806101000a81548173ffffffffffffffffffffffffffffffffffffffff021916908373ffffffffffffffffffffffffffffffffffffffff160217905550505600a165627a7a7230582056316f7a3e45351cd50b2a6ca439a1fd46ef514309c5975f3c070715efc7ac1b0029",
  "source": "pragma solidity ^0.4.18;\r\n\r\n// Ethereum Gye(契) Contract\r\n// Jeong Yeop (Terence) Kim\r\n\r\ncontract owned {\r\n    address public owner;\r\n\r\n    constructor() public {\r\n        owner = msg.sender;\r\n    }\r\n\r\n    modifier onlyOwner {\r\n        require(msg.sender == owner);\r\n        _;\r\n    }\r\n\r\n    function transferOwnership(address newOwner) public onlyOwner {\r\n        owner = newOwner;\r\n    }\r\n}\r\n\r\n\r\n// Simple Gye\r\ncontract Gye is owned {\r\n  Member[] public members;\r\n  mapping (address => uint) public memberDirectory;\r\n  string public gyeName;\r\n  string public gyeDescription;\r\n  uint public interest;\r\n\r\n  struct Member {\r\n    bool exists;\r\n    address member;\r\n    string name;\r\n    uint deposit;\r\n    bool deposited;\r\n    bool withdrawn;\r\n  }\r\n\r\n  constructor(string _gyeName, string _gyeDescription, uint _interest) public {\r\n    gyeName = _gyeName;\r\n    gyeDescription = _gyeDescription;\r\n    members.push(Member({exists: false, member: 0, name: \"SENTINEL\", deposit: 0, deposited: false, withdrawn: false})); // sentinel\r\n    memberDirectory[msg.sender] = members.length;\r\n    members.push(Member( { exists: true,\r\n                                            member: msg.sender,\r\n                                            name: \"Owner\",\r\n                                            deposit: 0,\r\n                                            deposited: false,\r\n                                            withdrawn: false }));\r\n    interest = _interest;\r\n  }\r\n\r\n  function addMember(address memberAddress, string memberName) onlyOwner public {\r\n\r\n    memberDirectory[memberAddress] = members.length;\r\n    members.push(Member({ exists: true,\r\n                                member: memberAddress,\r\n                                name: memberName,\r\n                                deposit: 0,\r\n                                deposited: false,\r\n                                withdrawn: false }));\r\n  }\r\n\r\n  modifier onlyMember {\r\n      require(members[memberDirectory[msg.sender]].exists);\r\n      _;\r\n  }\r\n\r\n  function pay(address recepient, uint amount) onlyOwner public {\r\n    recepient.transfer(amount);\r\n  }\r\n\r\n  // https://github.com/Giveth/vaultcontract/blob/master/contracts/Vault.sol\r\n  event EtherReceived(address indexed from, uint amount);\r\n  //////\r\n  // Receive Ether\r\n  //////\r\n\r\n  /// @notice Called anytime ether is sent to the contract && creates an event\r\n  /// to more easily track the incoming transactions\r\n  function receiveEther() onlyMember public payable {\r\n    address sender = msg.sender;\r\n    uint value = msg.value;\r\n\r\n    Member memory member = members[memberDirectory[sender]];\r\n    member.deposited = true;\r\n    member.deposit += value;\r\n\r\n    emit EtherReceived(sender, value);\r\n  }\r\n\r\n  /// @notice The fall back function is called whenever ether is sent to this\r\n  ///  contract\r\n  function () public payable {\r\n    receiveEther();\r\n  }\r\n\r\n\r\n}\r\n",
  "sourcePath": "c:\\Sandbox\\blockchain\\gye\\contracts\\Gye.sol",
  "compiler": {
    "name": "solc",
    "version": "0.4.23+commit.124ca40d.Emscripten.clang"
  },
  "schemaVersion": "2.0.0",
  "updatedAt": "2018-05-06T10:54:19.986Z"
}